{
  "contractName": "SixersJoelEmbiid",
  "abi": [
    {
      "constant": true,
      "inputs": [],
      "name": "name",
      "outputs": [
        {
          "name": "",
          "type": "string"
        }
      ],
      "payable": false,
      "stateMutability": "view",
      "type": "function"
    },
    {
      "constant": true,
      "inputs": [],
      "name": "totalSupply",
      "outputs": [
        {
          "name": "",
          "type": "uint256"
        }
      ],
      "payable": false,
      "stateMutability": "view",
      "type": "function"
    },
    {
      "constant": true,
      "inputs": [
        {
          "name": "id",
          "type": "uint256"
        }
      ],
      "name": "idToAddress",
      "outputs": [
        {
          "name": "",
          "type": "address"
        }
      ],
      "payable": false,
      "stateMutability": "view",
      "type": "function"
    },
    {
      "constant": true,
      "inputs": [
        {
          "name": "holder",
          "type": "address"
        }
      ],
      "name": "assetsOf",
      "outputs": [
        {
          "name": "",
          "type": "uint256[]"
        }
      ],
      "payable": false,
      "stateMutability": "view",
      "type": "function"
    },
    {
      "constant": true,
      "inputs": [
        {
          "name": "assetId",
          "type": "uint256"
        }
      ],
      "name": "safeHolderOf",
      "outputs": [
        {
          "name": "",
          "type": "address"
        }
      ],
      "payable": false,
      "stateMutability": "view",
      "type": "function"
    },
    {
      "constant": true,
      "inputs": [
        {
          "name": "holder",
          "type": "address"
        }
      ],
      "name": "assetsCount",
      "outputs": [
        {
          "name": "",
          "type": "uint256"
        }
      ],
      "payable": false,
      "stateMutability": "view",
      "type": "function"
    },
    {
      "constant": true,
      "inputs": [
        {
          "name": "assetId",
          "type": "uint256"
        }
      ],
      "name": "exists",
      "outputs": [
        {
          "name": "",
          "type": "bool"
        }
      ],
      "payable": false,
      "stateMutability": "view",
      "type": "function"
    },
    {
      "constant": true,
      "inputs": [
        {
          "name": "operator",
          "type": "address"
        },
        {
          "name": "assetHolder",
          "type": "address"
        }
      ],
      "name": "isOperatorAuthorizedFor",
      "outputs": [
        {
          "name": "",
          "type": "bool"
        }
      ],
      "payable": false,
      "stateMutability": "view",
      "type": "function"
    },
    {
      "constant": false,
      "inputs": [
        {
          "name": "id",
          "type": "uint256"
        }
      ],
      "name": "claimPlayer",
      "outputs": [],
      "payable": false,
      "stateMutability": "nonpayable",
      "type": "function"
    },
    {
      "constant": true,
      "inputs": [],
      "name": "description",
      "outputs": [
        {
          "name": "",
          "type": "string"
        }
      ],
      "payable": false,
      "stateMutability": "view",
      "type": "function"
    },
    {
      "constant": true,
      "inputs": [],
      "name": "symbol",
      "outputs": [
        {
          "name": "",
          "type": "string"
        }
      ],
      "payable": false,
      "stateMutability": "view",
      "type": "function"
    },
    {
      "constant": false,
      "inputs": [
        {
          "name": "to",
          "type": "address"
        },
        {
          "name": "assetId",
          "type": "uint256"
        }
      ],
      "name": "transfer",
      "outputs": [],
      "payable": false,
      "stateMutability": "nonpayable",
      "type": "function"
    },
    {
      "constant": true,
      "inputs": [
        {
          "name": "assetId",
          "type": "uint256"
        }
      ],
      "name": "assetData",
      "outputs": [
        {
          "name": "",
          "type": "string"
        }
      ],
      "payable": false,
      "stateMutability": "view",
      "type": "function"
    },
    {
      "constant": false,
      "inputs": [
        {
          "name": "to",
          "type": "address"
        },
        {
          "name": "assetId",
          "type": "uint256"
        },
        {
          "name": "userData",
          "type": "bytes"
        },
        {
          "name": "operatorData",
          "type": "bytes"
        }
      ],
      "name": "operatorTransfer",
      "outputs": [],
      "payable": false,
      "stateMutability": "nonpayable",
      "type": "function"
    },
    {
      "constant": false,
      "inputs": [
        {
          "name": "operator",
          "type": "address"
        },
        {
          "name": "authorized",
          "type": "bool"
        }
      ],
      "name": "authorizeOperator",
      "outputs": [],
      "payable": false,
      "stateMutability": "nonpayable",
      "type": "function"
    },
    {
      "constant": true,
      "inputs": [],
      "name": "_owner",
      "outputs": [
        {
          "name": "",
          "type": "address"
        }
      ],
      "payable": false,
      "stateMutability": "view",
      "type": "function"
    },
    {
      "constant": false,
      "inputs": [
        {
          "name": "to",
          "type": "address"
        },
        {
          "name": "assetId",
          "type": "uint256"
        },
        {
          "name": "userData",
          "type": "bytes"
        }
      ],
      "name": "transfer",
      "outputs": [],
      "payable": false,
      "stateMutability": "nonpayable",
      "type": "function"
    },
    {
      "constant": true,
      "inputs": [],
      "name": "claimedCount",
      "outputs": [
        {
          "name": "",
          "type": "uint256"
        }
      ],
      "payable": false,
      "stateMutability": "view",
      "type": "function"
    },
    {
      "constant": true,
      "inputs": [
        {
          "name": "playerOwner",
          "type": "address"
        }
      ],
      "name": "getOwnedPlayers",
      "outputs": [
        {
          "name": "",
          "type": "uint256[]"
        }
      ],
      "payable": false,
      "stateMutability": "view",
      "type": "function"
    },
    {
      "constant": true,
      "inputs": [
        {
          "name": "holder",
          "type": "address"
        },
        {
          "name": "index",
          "type": "uint256"
        }
      ],
      "name": "assetByIndex",
      "outputs": [
        {
          "name": "",
          "type": "uint256"
        }
      ],
      "payable": false,
      "stateMutability": "view",
      "type": "function"
    },
    {
      "constant": true,
      "inputs": [
        {
          "name": "assetId",
          "type": "uint256"
        }
      ],
      "name": "holderOf",
      "outputs": [
        {
          "name": "",
          "type": "address"
        }
      ],
      "payable": false,
      "stateMutability": "view",
      "type": "function"
    },
    {
      "inputs": [],
      "payable": false,
      "stateMutability": "nonpayable",
      "type": "constructor"
    },
    {
      "anonymous": false,
      "inputs": [
        {
          "indexed": true,
          "name": "_id",
          "type": "uint256"
        },
        {
          "indexed": true,
          "name": "_seller",
          "type": "address"
        }
      ],
      "name": "claimPlayerEvent",
      "type": "event"
    },
    {
      "anonymous": false,
      "inputs": [
        {
          "indexed": true,
          "name": "from",
          "type": "address"
        },
        {
          "indexed": true,
          "name": "to",
          "type": "address"
        },
        {
          "indexed": true,
          "name": "assetId",
          "type": "uint256"
        },
        {
          "indexed": false,
          "name": "operator",
          "type": "address"
        },
        {
          "indexed": false,
          "name": "userData",
          "type": "bytes"
        },
        {
          "indexed": false,
          "name": "operatorData",
          "type": "bytes"
        }
      ],
      "name": "Transfer",
      "type": "event"
    },
    {
      "anonymous": false,
      "inputs": [
        {
          "indexed": true,
          "name": "assetId",
          "type": "uint256"
        },
        {
          "indexed": true,
          "name": "holder",
          "type": "address"
        },
        {
          "indexed": true,
          "name": "operator",
          "type": "address"
        },
        {
          "indexed": false,
          "name": "data",
          "type": "string"
        }
      ],
      "name": "Update",
      "type": "event"
    },
    {
      "anonymous": false,
      "inputs": [
        {
          "indexed": true,
          "name": "operator",
          "type": "address"
        },
        {
          "indexed": true,
          "name": "holder",
          "type": "address"
        },
        {
          "indexed": false,
          "name": "authorized",
          "type": "bool"
        }
      ],
      "name": "AuthorizeOperator",
      "type": "event"
    }
  ],
  "bytecode": "0x606060405234156200001057600080fd5b33600960016101000a81548173ffffffffffffffffffffffffffffffffffffffff021916908373ffffffffffffffffffffffffffffffffffffffff1602179055506040805190810160405280600c81526020017f534958455253454d424949440000000000000000000000000000000000000000815250600090805190602001906200009e92919062000149565b506040805190810160405280600681526020017f534958455253000000000000000000000000000000000000000000000000000081525060019080519060200190620000ec92919062000149565b506040805190810160405280601e81526020017f5068696c6164656c70686961203736657273204a6f656c20456d626969640000815250600290805190602001906200013a92919062000149565b506014600381905550620001f8565b828054600181600116156101000203166002900490600052602060002090601f016020900481019282601f106200018c57805160ff1916838001178555620001bd565b82800160010185558215620001bd579182015b82811115620001bc5782518255916020019190600101906200019f565b5b509050620001cc9190620001d0565b5090565b620001f591905b80821115620001f1576000816000905550600101620001d7565b5090565b90565b6120e180620002086000396000f30060606040526004361061011d576000357c0100000000000000000000000000000000000000000000000000000000900463ffffffff16806306fdde031461012257806318160ddd146101b05780632a2d0c47146101d95780632c62fa101461023c57806333683ec6146102ca578063412cbc061461032d5780634f558e791461037a57806355ef2913146103b557806369c888ed146104255780637284e4161461044857806395d89b41146104d6578063a9059cbb14610564578063ac823a7e146105a6578063ae5a9bb414610642578063b0994d4a1461070a578063b2bdfa7b1461074e578063be45fd62146107a3578063c08fa1a414610828578063ceb435b514610851578063d2953f84146108df578063dbacc23714610935575b600080fd5b341561012d57600080fd5b610135610998565b6040518080602001828103825283818151815260200191508051906020019080838360005b8381101561017557808201518184015260208101905061015a565b50505050905090810190601f1680156101a25780820380516001836020036101000a031916815260200191505b509250505060405180910390f35b34156101bb57600080fd5b6101c3610a40565b6040518082815260200191505060405180910390f35b34156101e457600080fd5b6101fa6004808035906020019091905050610a4a565b604051808273ffffffffffffffffffffffffffffffffffffffff1673ffffffffffffffffffffffffffffffffffffffff16815260200191505060405180910390f35b341561024757600080fd5b610273600480803573ffffffffffffffffffffffffffffffffffffffff16906020019091905050610a87565b6040518080602001828103825283818151815260200191508051906020019060200280838360005b838110156102b657808201518184015260208101905061029b565b505050509050019250505060405180910390f35b34156102d557600080fd5b6102eb6004808035906020019091905050610b24565b604051808273ffffffffffffffffffffffffffffffffffffffff1673ffffffffffffffffffffffffffffffffffffffff16815260200191505060405180910390f35b341561033857600080fd5b610364600480803573ffffffffffffffffffffffffffffffffffffffff16906020019091905050610b8c565b6040518082815260200191505060405180910390f35b341561038557600080fd5b61039b6004808035906020019091905050610bd8565b604051808215151515815260200191505060405180910390f35b34156103c057600080fd5b61040b600480803573ffffffffffffffffffffffffffffffffffffffff1690602001909190803573ffffffffffffffffffffffffffffffffffffffff16906020019091905050610c2e565b604051808215151515815260200191505060405180910390f35b341561043057600080fd5b6104466004808035906020019091905050610cc2565b005b341561045357600080fd5b61045b610ce0565b6040518080602001828103825283818151815260200191508051906020019080838360005b8381101561049b578082015181840152602081019050610480565b50505050905090810190601f1680156104c85780820380516001836020036101000a031916815260200191505b509250505060405180910390f35b34156104e157600080fd5b6104e9610d88565b6040518080602001828103825283818151815260200191508051906020019080838360005b8381101561052957808201518184015260208101905061050e565b50505050905090810190601f1680156105565780820380516001836020036101000a031916815260200191505b509250505060405180910390f35b341561056f57600080fd5b6105a4600480803573ffffffffffffffffffffffffffffffffffffffff16906020019091908035906020019091905050610e30565b005b34156105b157600080fd5b6105c76004808035906020019091905050610ef9565b6040518080602001828103825283818151815260200191508051906020019080838360005b838110156106075780820151818401526020810190506105ec565b50505050905090810190601f1680156106345780820380516001836020036101000a031916815260200191505b509250505060405180910390f35b341561064d57600080fd5b610708600480803573ffffffffffffffffffffffffffffffffffffffff1690602001909190803590602001909190803590602001908201803590602001908080601f0160208091040260200160405190810160405280939291908181526020018383808284378201915050505050509190803590602001908201803590602001908080601f0160208091040260200160405190810160405280939291908181526020018383808284378201915050505050509190505061100d565b005b341561071557600080fd5b61074c600480803573ffffffffffffffffffffffffffffffffffffffff1690602001909190803515159060200190919050506110fb565b005b341561075957600080fd5b6107616111b3565b604051808273ffffffffffffffffffffffffffffffffffffffff1673ffffffffffffffffffffffffffffffffffffffff16815260200191505060405180910390f35b34156107ae57600080fd5b610826600480803573ffffffffffffffffffffffffffffffffffffffff1690602001909190803590602001909190803590602001908201803590602001908080601f016020809104026020016040519081016040528093929190818152602001838380828437820191505050505050919050506111d9565b005b341561083357600080fd5b61083b611293565b6040518082815260200191505060405180910390f35b341561085c57600080fd5b610888600480803573ffffffffffffffffffffffffffffffffffffffff169060200190919050506112d6565b6040518080602001828103825283818151815260200191508051906020019060200280838360005b838110156108cb5780820151818401526020810190506108b0565b505050509050019250505060405180910390f35b34156108ea57600080fd5b61091f600480803573ffffffffffffffffffffffffffffffffffffffff16906020019091908035906020019091905050611373565b6040518082815260200191505060405180910390f35b341561094057600080fd5b6109566004808035906020019091905050611425565b604051808273ffffffffffffffffffffffffffffffffffffffff1673ffffffffffffffffffffffffffffffffffffffff16815260200191505060405180910390f35b6109a0611f6f565b60008054600181600116156101000203166002900480601f016020809104026020016040519081016040528092919081815260200182805460018160011615610100020316600290048015610a365780601f10610a0b57610100808354040283529160200191610a36565b820191906000526020600020905b815481529060010190602001808311610a1957829003601f168201915b5050505050905090565b6000600354905090565b60006005600083815260200190815260200160002060009054906101000a900473ffffffffffffffffffffffffffffffffffffffff169050919050565b610a8f611f83565b600460008373ffffffffffffffffffffffffffffffffffffffff1673ffffffffffffffffffffffffffffffffffffffff168152602001908152602001600020805480602002602001604051908101604052809291908181526020018280548015610b1857602002820191906000526020600020905b815481526020019060010190808311610b04575b50505050509050919050565b6000806005600084815260200190815260200160002060009054906101000a900473ffffffffffffffffffffffffffffffffffffffff16905060008173ffffffffffffffffffffffffffffffffffffffff1614151515610b8357600080fd5b80915050919050565b6000600460008373ffffffffffffffffffffffffffffffffffffffff1673ffffffffffffffffffffffffffffffffffffffff168152602001908152602001600020805490509050919050565b6000806005600084815260200190815260200160002060009054906101000a900473ffffffffffffffffffffffffffffffffffffffff1673ffffffffffffffffffffffffffffffffffffffff1614159050919050565b6000600860008373ffffffffffffffffffffffffffffffffffffffff1673ffffffffffffffffffffffffffffffffffffffff16815260200190815260200160002060008473ffffffffffffffffffffffffffffffffffffffff1673ffffffffffffffffffffffffffffffffffffffff16815260200190815260200160002060009054906101000a900460ff16905092915050565b610cdd81336020604051908101604052806000815250611462565b50565b610ce8611f6f565b60028054600181600116156101000203166002900480601f016020809104026020016040519081016040528092919081815260200182805460018160011615610100020316600290048015610d7e5780601f10610d5357610100808354040283529160200191610d7e565b820191906000526020600020905b815481529060010190602001808311610d6157829003601f168201915b5050505050905090565b610d90611f6f565b60018054600181600116156101000203166002900480601f016020809104026020016040519081016040528092919081815260200182805460018160011615610100020316600290048015610e265780601f10610dfb57610100808354040283529160200191610e26565b820191906000526020600020905b815481529060010190602001808311610e0957829003601f168201915b5050505050905090565b8160008173ffffffffffffffffffffffffffffffffffffffff1614151515610e5757600080fd5b813373ffffffffffffffffffffffffffffffffffffffff166005600083815260200190815260200160002060009054906101000a900473ffffffffffffffffffffffffffffffffffffffff1673ffffffffffffffffffffffffffffffffffffffff16141515610ec557600080fd5b610ef384846020604051908101604052806000815250600060206040519081016040528060008152506115c8565b50505050565b610f01611f6f565b60006005600084815260200190815260200160002060009054906101000a900473ffffffffffffffffffffffffffffffffffffffff1673ffffffffffffffffffffffffffffffffffffffff1614151515610f5a57600080fd5b600760008381526020019081526020016000208054600181600116156101000203166002900480601f0160208091040260200160405190810160405280929190818152602001828054600181600116156101000203166002900480156110015780601f10610fd657610100808354040283529160200191611001565b820191906000526020600020905b815481529060010190602001808311610fe457829003601f168201915b50505050509050919050565b8360008173ffffffffffffffffffffffffffffffffffffffff161415151561103457600080fd5b833373ffffffffffffffffffffffffffffffffffffffff166005600083815260200190815260200160002060009054906101000a900473ffffffffffffffffffffffffffffffffffffffff1673ffffffffffffffffffffffffffffffffffffffff1614806110db57506110da336005600084815260200190815260200160002060009054906101000a900473ffffffffffffffffffffffffffffffffffffffff16610c2e565b5b15156110e657600080fd5b6110f386868633876115c8565b505050505050565b80156111265761110b8233610c2e565b15151561111757600080fd5b61112182336119e1565b611146565b6111308233610c2e565b151561113b57600080fd5b6111458233611a7a565b5b3373ffffffffffffffffffffffffffffffffffffffff168273ffffffffffffffffffffffffffffffffffffffff167ffe1dcbb12493a4af760875b0c328b264e6397b8bd47cdc249df0444b4daf1cbc83604051808215151515815260200191505060405180910390a35050565b600960019054906101000a900473ffffffffffffffffffffffffffffffffffffffff1681565b8260008173ffffffffffffffffffffffffffffffffffffffff161415151561120057600080fd5b823373ffffffffffffffffffffffffffffffffffffffff166005600083815260200190815260200160002060009054906101000a900473ffffffffffffffffffffffffffffffffffffffff1673ffffffffffffffffffffffffffffffffffffffff1614151561126e57600080fd5b61128c858585600060206040519081016040528060008152506115c8565b5050505050565b6000806000809150600090505b6003548110156112ce576112b381610bd8565b156112c15781806001019250505b80806001019150506112a0565b819250505090565b6112de611f83565b600460008373ffffffffffffffffffffffffffffffffffffffff1673ffffffffffffffffffffffffffffffffffffffff16815260200190815260200160002080548060200260200160405190810160405280929190818152602001828054801561136757602002820191906000526020600020905b815481526020019060010190808311611353575b50505050509050919050565b6000600460008473ffffffffffffffffffffffffffffffffffffffff1673ffffffffffffffffffffffffffffffffffffffff16815260200190815260200160002080549050821015156113c557600080fd5b600460008473ffffffffffffffffffffffffffffffffffffffff1673ffffffffffffffffffffffffffffffffffffffff1681526020019081526020016000208281548110151561141157fe5b906000526020600020900154905092915050565b60006005600083815260200190815260200160002060009054906101000a900473ffffffffffffffffffffffffffffffffffffffff169050919050565b60006005600085815260200190815260200160002060009054906101000a900473ffffffffffffffffffffffffffffffffffffffff1673ffffffffffffffffffffffffffffffffffffffff161415156114ba57600080fd5b6114c5828483611b13565b828273ffffffffffffffffffffffffffffffffffffffff1660007f8988d59efc2c4547ef86c88f6543963bab0cea94f8e486e619c7c3a790db93be3385604051808373ffffffffffffffffffffffffffffffffffffffff1673ffffffffffffffffffffffffffffffffffffffff1681526020018060200180602001838103835284818151815260200191508051906020019080838360005b8381101561157857808201518184015260208101905061155d565b50505050905090810190601f1680156115a55780820380516001836020036101000a031916815260200191505b5083810382526000815260200160200194505050505060405180910390a4505050565b60006005600086815260200190815260200160002060009054906101000a900473ffffffffffffffffffffffffffffffffffffffff16905061160a8186611b4a565b6116148686611e27565b61161d86611f25565b1561186d57600960009054906101000a900460ff1615151561163e57600080fd5b6001600960006101000a81548160ff0219169083151502179055508573ffffffffffffffffffffffffffffffffffffffff16633bde30728683898888886040518763ffffffff167c0100000000000000000000000000000000000000000000000000000000028152600401808781526020018673ffffffffffffffffffffffffffffffffffffffff1673ffffffffffffffffffffffffffffffffffffffff1681526020018573ffffffffffffffffffffffffffffffffffffffff1673ffffffffffffffffffffffffffffffffffffffff168152602001806020018473ffffffffffffffffffffffffffffffffffffffff1673ffffffffffffffffffffffffffffffffffffffff16815260200180602001838103835286818151815260200191508051906020019080838360005b8381101561178657808201518184015260208101905061176b565b50505050905090810190601f1680156117b35780820380516001836020036101000a031916815260200191505b50838103825284818151815260200191508051906020019080838360005b838110156117ec5780820151818401526020810190506117d1565b50505050905090810190601f1680156118195780820380516001836020036101000a031916815260200191505b5098505050505050505050600060405180830381600087803b151561183d57600080fd5b6102c65a03f1151561184e57600080fd5b5050506000600960006101000a81548160ff0219169083151502179055505b848673ffffffffffffffffffffffffffffffffffffffff168273ffffffffffffffffffffffffffffffffffffffff167f8988d59efc2c4547ef86c88f6543963bab0cea94f8e486e619c7c3a790db93be868887604051808473ffffffffffffffffffffffffffffffffffffffff1673ffffffffffffffffffffffffffffffffffffffff1681526020018060200180602001838103835285818151815260200191508051906020019080838360005b8381101561193657808201518184015260208101905061191b565b50505050905090810190601f1680156119635780820380516001836020036101000a031916815260200191505b50838103825284818151815260200191508051906020019080838360005b8381101561199c578082015181840152602081019050611981565b50505050905090810190601f1680156119c95780820380516001836020036101000a031916815260200191505b509550505050505060405180910390a4505050505050565b6001600860008373ffffffffffffffffffffffffffffffffffffffff1673ffffffffffffffffffffffffffffffffffffffff16815260200190815260200160002060008473ffffffffffffffffffffffffffffffffffffffff1673ffffffffffffffffffffffffffffffffffffffff16815260200190815260200160002060006101000a81548160ff0219169083151502179055505050565b6000600860008373ffffffffffffffffffffffffffffffffffffffff1673ffffffffffffffffffffffffffffffffffffffff16815260200190815260200160002060008473ffffffffffffffffffffffffffffffffffffffff1673ffffffffffffffffffffffffffffffffffffffff16815260200190815260200160002060006101000a81548160ff0219169083151502179055505050565b611b1d8383611e27565b80600760008481526020019081526020016000209080519060200190611b44929190611f97565b50505050565b600080600060066000858152602001908152602001600020549250611b816001611b7387610b8c565b611f3890919063ffffffff16565b9150600460008673ffffffffffffffffffffffffffffffffffffffff1673ffffffffffffffffffffffffffffffffffffffff16815260200190815260200160002082815481101515611bcf57fe5b906000526020600020900154905060006005600086815260200190815260200160002060006101000a81548173ffffffffffffffffffffffffffffffffffffffff021916908373ffffffffffffffffffffffffffffffffffffffff16021790555080600460008773ffffffffffffffffffffffffffffffffffffffff1673ffffffffffffffffffffffffffffffffffffffff16815260200190815260200160002084815481101515611c7d57fe5b9060005260206000209001819055506000600460008773ffffffffffffffffffffffffffffffffffffffff1673ffffffffffffffffffffffffffffffffffffffff16815260200190815260200160002083815481101515611cda57fe5b906000526020600020900181905550600460008673ffffffffffffffffffffffffffffffffffffffff1673ffffffffffffffffffffffffffffffffffffffff168152602001908152602001600020805480919060019003611d3b9190612017565b506000600460008773ffffffffffffffffffffffffffffffffffffffff1673ffffffffffffffffffffffffffffffffffffffff168152602001908152602001600020805490501415611dd357600460008673ffffffffffffffffffffffffffffffffffffffff1673ffffffffffffffffffffffffffffffffffffffff1681526020019081526020016000206000611dd29190612043565b5b60006006600086815260200190815260200160002081905550826006600083815260200190815260200160002081905550611e1a6001600354611f3890919063ffffffff16565b6003819055505050505050565b6000826005600084815260200190815260200160002060006101000a81548173ffffffffffffffffffffffffffffffffffffffff021916908373ffffffffffffffffffffffffffffffffffffffff160217905550611e8483610b8c565b9050600460008473ffffffffffffffffffffffffffffffffffffffff1673ffffffffffffffffffffffffffffffffffffffff1681526020019081526020016000208054806001018281611ed79190612064565b916000526020600020900160008490919091505550806006600084815260200190815260200160002081905550611f1a6001600354611f5190919063ffffffff16565b600381905550505050565b600080823b905060008111915050919050565b6000828211151515611f4657fe5b818303905092915050565b6000808284019050838110151515611f6557fe5b8091505092915050565b602060405190810160405280600081525090565b602060405190810160405280600081525090565b828054600181600116156101000203166002900490600052602060002090601f016020900481019282601f10611fd857805160ff1916838001178555612006565b82800160010185558215612006579182015b82811115612005578251825591602001919060010190611fea565b5b5090506120139190612090565b5090565b81548183558181151161203e5781836000526020600020918201910161203d9190612090565b5b505050565b50805460008255906000526020600020908101906120619190612090565b50565b81548183558181151161208b5781836000526020600020918201910161208a9190612090565b5b505050565b6120b291905b808211156120ae576000816000905550600101612096565b5090565b905600a165627a7a72305820f1a00af71aee9ec3ac8776f6afd81e5150559ec03a8da09334c9a9df67ee40ea0029",
  "source": "pragma solidity ^0.4.18;\n\nimport './erc821/StandardAssetRegistry.sol';\n\ncontract SixersJoelEmbiid is StandardAssetRegistry {\n    // Owner of this contract\n    address public _owner;\n\n    // Events\n    event claimPlayerEvent (\n      uint indexed _id,\n      address indexed _seller\n    );\n\n    // Constructor\n    function SixersJoelEmbiid() public {\n      _owner = msg.sender;\n      _name = \"SIXERSEMBIID\";\n      _symbol = \"SIXERS\";\n      _description = \"Philadelphia 76ers Joel Embiid\";\n      _count = 20;\n\n    }\n\n    function claimPlayer(uint256 id) public {\n      _generate(id, msg.sender, '');\n    }\n\n    function idToAddress(uint256 id) public view returns (address) {\n      return _holderOf[id];\n    }\n\n    function getOwnedPlayers(address playerOwner) public view returns (uint256[]) {\n      return _assetsOf[playerOwner];\n    }\n\n    function claimedCount() public view returns (uint256) {\n      uint256 _claimedCount = 0;\n      for (uint i = 0; i < _count; i++) {\n        if (exists(i)) {\n          _claimedCount++;\n        }\n      }\n      return _claimedCount;\n    }\n\n}\n",
  "sourcePath": "/home/icole/Workspace/sixers-trader/contracts/SixersJoelEmbiid.sol",
  "compiler": {
    "name": "solc",
    "version": "0.4.18+commit.9cf6e910.Emscripten.clang"
  },
  "schemaVersion": "1.0.1",
  "updatedAt": "2018-01-21T23:23:00.979Z"
}