{
  "contractName": "StandardAssetRegistry",
  "abi": [
    {
      "constant": true,
      "inputs": [],
      "name": "name",
      "outputs": [
        {
          "name": "",
          "type": "string"
        }
      ],
      "payable": false,
      "stateMutability": "view",
      "type": "function"
    },
    {
      "constant": true,
      "inputs": [],
      "name": "totalSupply",
      "outputs": [
        {
          "name": "",
          "type": "uint256"
        }
      ],
      "payable": false,
      "stateMutability": "view",
      "type": "function"
    },
    {
      "constant": true,
      "inputs": [
        {
          "name": "holder",
          "type": "address"
        }
      ],
      "name": "assetsOf",
      "outputs": [
        {
          "name": "",
          "type": "uint256[]"
        }
      ],
      "payable": false,
      "stateMutability": "view",
      "type": "function"
    },
    {
      "constant": true,
      "inputs": [
        {
          "name": "assetId",
          "type": "uint256"
        }
      ],
      "name": "safeHolderOf",
      "outputs": [
        {
          "name": "",
          "type": "address"
        }
      ],
      "payable": false,
      "stateMutability": "view",
      "type": "function"
    },
    {
      "constant": true,
      "inputs": [
        {
          "name": "holder",
          "type": "address"
        }
      ],
      "name": "assetsCount",
      "outputs": [
        {
          "name": "",
          "type": "uint256"
        }
      ],
      "payable": false,
      "stateMutability": "view",
      "type": "function"
    },
    {
      "constant": true,
      "inputs": [
        {
          "name": "assetId",
          "type": "uint256"
        }
      ],
      "name": "exists",
      "outputs": [
        {
          "name": "",
          "type": "bool"
        }
      ],
      "payable": false,
      "stateMutability": "view",
      "type": "function"
    },
    {
      "constant": true,
      "inputs": [
        {
          "name": "operator",
          "type": "address"
        },
        {
          "name": "assetHolder",
          "type": "address"
        }
      ],
      "name": "isOperatorAuthorizedFor",
      "outputs": [
        {
          "name": "",
          "type": "bool"
        }
      ],
      "payable": false,
      "stateMutability": "view",
      "type": "function"
    },
    {
      "constant": true,
      "inputs": [],
      "name": "description",
      "outputs": [
        {
          "name": "",
          "type": "string"
        }
      ],
      "payable": false,
      "stateMutability": "view",
      "type": "function"
    },
    {
      "constant": true,
      "inputs": [],
      "name": "symbol",
      "outputs": [
        {
          "name": "",
          "type": "string"
        }
      ],
      "payable": false,
      "stateMutability": "view",
      "type": "function"
    },
    {
      "constant": false,
      "inputs": [
        {
          "name": "to",
          "type": "address"
        },
        {
          "name": "assetId",
          "type": "uint256"
        }
      ],
      "name": "transfer",
      "outputs": [],
      "payable": false,
      "stateMutability": "nonpayable",
      "type": "function"
    },
    {
      "constant": true,
      "inputs": [
        {
          "name": "assetId",
          "type": "uint256"
        }
      ],
      "name": "assetData",
      "outputs": [
        {
          "name": "",
          "type": "string"
        }
      ],
      "payable": false,
      "stateMutability": "view",
      "type": "function"
    },
    {
      "constant": false,
      "inputs": [
        {
          "name": "to",
          "type": "address"
        },
        {
          "name": "assetId",
          "type": "uint256"
        },
        {
          "name": "userData",
          "type": "bytes"
        },
        {
          "name": "operatorData",
          "type": "bytes"
        }
      ],
      "name": "operatorTransfer",
      "outputs": [],
      "payable": false,
      "stateMutability": "nonpayable",
      "type": "function"
    },
    {
      "constant": false,
      "inputs": [
        {
          "name": "operator",
          "type": "address"
        },
        {
          "name": "authorized",
          "type": "bool"
        }
      ],
      "name": "authorizeOperator",
      "outputs": [],
      "payable": false,
      "stateMutability": "nonpayable",
      "type": "function"
    },
    {
      "constant": false,
      "inputs": [
        {
          "name": "to",
          "type": "address"
        },
        {
          "name": "assetId",
          "type": "uint256"
        },
        {
          "name": "userData",
          "type": "bytes"
        }
      ],
      "name": "transfer",
      "outputs": [],
      "payable": false,
      "stateMutability": "nonpayable",
      "type": "function"
    },
    {
      "constant": true,
      "inputs": [
        {
          "name": "holder",
          "type": "address"
        },
        {
          "name": "index",
          "type": "uint256"
        }
      ],
      "name": "assetByIndex",
      "outputs": [
        {
          "name": "",
          "type": "uint256"
        }
      ],
      "payable": false,
      "stateMutability": "view",
      "type": "function"
    },
    {
      "constant": true,
      "inputs": [
        {
          "name": "assetId",
          "type": "uint256"
        }
      ],
      "name": "holderOf",
      "outputs": [
        {
          "name": "",
          "type": "address"
        }
      ],
      "payable": false,
      "stateMutability": "view",
      "type": "function"
    },
    {
      "anonymous": false,
      "inputs": [
        {
          "indexed": true,
          "name": "from",
          "type": "address"
        },
        {
          "indexed": true,
          "name": "to",
          "type": "address"
        },
        {
          "indexed": true,
          "name": "assetId",
          "type": "uint256"
        },
        {
          "indexed": false,
          "name": "operator",
          "type": "address"
        },
        {
          "indexed": false,
          "name": "userData",
          "type": "bytes"
        },
        {
          "indexed": false,
          "name": "operatorData",
          "type": "bytes"
        }
      ],
      "name": "Transfer",
      "type": "event"
    },
    {
      "anonymous": false,
      "inputs": [
        {
          "indexed": true,
          "name": "assetId",
          "type": "uint256"
        },
        {
          "indexed": true,
          "name": "holder",
          "type": "address"
        },
        {
          "indexed": true,
          "name": "operator",
          "type": "address"
        },
        {
          "indexed": false,
          "name": "data",
          "type": "string"
        }
      ],
      "name": "Update",
      "type": "event"
    },
    {
      "anonymous": false,
      "inputs": [
        {
          "indexed": true,
          "name": "operator",
          "type": "address"
        },
        {
          "indexed": true,
          "name": "holder",
          "type": "address"
        },
        {
          "indexed": false,
          "name": "authorized",
          "type": "bool"
        }
      ],
      "name": "AuthorizeOperator",
      "type": "event"
    }
  ],
  "bytecode": "0x6060604052341561000f57600080fd5b611b9a8061001e6000396000f3006060604052600436106100e6576000357c0100000000000000000000000000000000000000000000000000000000900463ffffffff16806306fdde03146100eb57806318160ddd146101795780632c62fa10146101a257806333683ec614610230578063412cbc06146102935780634f558e79146102e057806355ef29131461031b5780637284e4161461038b57806395d89b4114610419578063a9059cbb146104a7578063ac823a7e146104e9578063ae5a9bb414610585578063b0994d4a1461064d578063be45fd6214610691578063d2953f8414610716578063dbacc2371461076c575b600080fd5b34156100f657600080fd5b6100fe6107cf565b6040518080602001828103825283818151815260200191508051906020019080838360005b8381101561013e578082015181840152602081019050610123565b50505050905090810190601f16801561016b5780820380516001836020036101000a031916815260200191505b509250505060405180910390f35b341561018457600080fd5b61018c610877565b6040518082815260200191505060405180910390f35b34156101ad57600080fd5b6101d9600480803573ffffffffffffffffffffffffffffffffffffffff16906020019091905050610881565b6040518080602001828103825283818151815260200191508051906020019060200280838360005b8381101561021c578082015181840152602081019050610201565b505050509050019250505060405180910390f35b341561023b57600080fd5b610251600480803590602001909190505061091e565b604051808273ffffffffffffffffffffffffffffffffffffffff1673ffffffffffffffffffffffffffffffffffffffff16815260200191505060405180910390f35b341561029e57600080fd5b6102ca600480803573ffffffffffffffffffffffffffffffffffffffff16906020019091905050610986565b6040518082815260200191505060405180910390f35b34156102eb57600080fd5b61030160048080359060200190919050506109d2565b604051808215151515815260200191505060405180910390f35b341561032657600080fd5b610371600480803573ffffffffffffffffffffffffffffffffffffffff1690602001909190803573ffffffffffffffffffffffffffffffffffffffff16906020019091905050610a28565b604051808215151515815260200191505060405180910390f35b341561039657600080fd5b61039e610abc565b6040518080602001828103825283818151815260200191508051906020019080838360005b838110156103de5780820151818401526020810190506103c3565b50505050905090810190601f16801561040b5780820380516001836020036101000a031916815260200191505b509250505060405180910390f35b341561042457600080fd5b61042c610b64565b6040518080602001828103825283818151815260200191508051906020019080838360005b8381101561046c578082015181840152602081019050610451565b50505050905090810190601f1680156104995780820380516001836020036101000a031916815260200191505b509250505060405180910390f35b34156104b257600080fd5b6104e7600480803573ffffffffffffffffffffffffffffffffffffffff16906020019091908035906020019091905050610c0c565b005b34156104f457600080fd5b61050a6004808035906020019091905050610cd5565b6040518080602001828103825283818151815260200191508051906020019080838360005b8381101561054a57808201518184015260208101905061052f565b50505050905090810190601f1680156105775780820380516001836020036101000a031916815260200191505b509250505060405180910390f35b341561059057600080fd5b61064b600480803573ffffffffffffffffffffffffffffffffffffffff1690602001909190803590602001909190803590602001908201803590602001908080601f0160208091040260200160405190810160405280939291908181526020018383808284378201915050505050509190803590602001908201803590602001908080601f01602080910402602001604051908101604052809392919081815260200183838082843782019150505050505091905050610de9565b005b341561065857600080fd5b61068f600480803573ffffffffffffffffffffffffffffffffffffffff169060200190919080351515906020019091905050610ed7565b005b341561069c57600080fd5b610714600480803573ffffffffffffffffffffffffffffffffffffffff1690602001909190803590602001909190803590602001908201803590602001908080601f01602080910402602001604051908101604052809392919081815260200183838082843782019150505050505091905050610f8f565b005b341561072157600080fd5b610756600480803573ffffffffffffffffffffffffffffffffffffffff16906020019091908035906020019091905050611049565b6040518082815260200191505060405180910390f35b341561077757600080fd5b61078d60048080359060200190919050506110fb565b604051808273ffffffffffffffffffffffffffffffffffffffff1673ffffffffffffffffffffffffffffffffffffffff16815260200191505060405180910390f35b6107d7611aa8565b60008054600181600116156101000203166002900480601f01602080910402602001604051908101604052809291908181526020018280546001816001161561010002031660029004801561086d5780601f106108425761010080835404028352916020019161086d565b820191906000526020600020905b81548152906001019060200180831161085057829003601f168201915b5050505050905090565b6000600354905090565b610889611abc565b600460008373ffffffffffffffffffffffffffffffffffffffff1673ffffffffffffffffffffffffffffffffffffffff16815260200190815260200160002080548060200260200160405190810160405280929190818152602001828054801561091257602002820191906000526020600020905b8154815260200190600101908083116108fe575b50505050509050919050565b6000806005600084815260200190815260200160002060009054906101000a900473ffffffffffffffffffffffffffffffffffffffff16905060008173ffffffffffffffffffffffffffffffffffffffff161415151561097d57600080fd5b80915050919050565b6000600460008373ffffffffffffffffffffffffffffffffffffffff1673ffffffffffffffffffffffffffffffffffffffff168152602001908152602001600020805490509050919050565b6000806005600084815260200190815260200160002060009054906101000a900473ffffffffffffffffffffffffffffffffffffffff1673ffffffffffffffffffffffffffffffffffffffff1614159050919050565b6000600860008373ffffffffffffffffffffffffffffffffffffffff1673ffffffffffffffffffffffffffffffffffffffff16815260200190815260200160002060008473ffffffffffffffffffffffffffffffffffffffff1673ffffffffffffffffffffffffffffffffffffffff16815260200190815260200160002060009054906101000a900460ff16905092915050565b610ac4611aa8565b60028054600181600116156101000203166002900480601f016020809104026020016040519081016040528092919081815260200182805460018160011615610100020316600290048015610b5a5780601f10610b2f57610100808354040283529160200191610b5a565b820191906000526020600020905b815481529060010190602001808311610b3d57829003601f168201915b5050505050905090565b610b6c611aa8565b60018054600181600116156101000203166002900480601f016020809104026020016040519081016040528092919081815260200182805460018160011615610100020316600290048015610c025780601f10610bd757610100808354040283529160200191610c02565b820191906000526020600020905b815481529060010190602001808311610be557829003601f168201915b5050505050905090565b8160008173ffffffffffffffffffffffffffffffffffffffff1614151515610c3357600080fd5b813373ffffffffffffffffffffffffffffffffffffffff166005600083815260200190815260200160002060009054906101000a900473ffffffffffffffffffffffffffffffffffffffff1673ffffffffffffffffffffffffffffffffffffffff16141515610ca157600080fd5b610ccf8484602060405190810160405280600081525060006020604051908101604052806000815250611138565b50505050565b610cdd611aa8565b60006005600084815260200190815260200160002060009054906101000a900473ffffffffffffffffffffffffffffffffffffffff1673ffffffffffffffffffffffffffffffffffffffff1614151515610d3657600080fd5b600760008381526020019081526020016000208054600181600116156101000203166002900480601f016020809104026020016040519081016040528092919081815260200182805460018160011615610100020316600290048015610ddd5780601f10610db257610100808354040283529160200191610ddd565b820191906000526020600020905b815481529060010190602001808311610dc057829003601f168201915b50505050509050919050565b8360008173ffffffffffffffffffffffffffffffffffffffff1614151515610e1057600080fd5b833373ffffffffffffffffffffffffffffffffffffffff166005600083815260200190815260200160002060009054906101000a900473ffffffffffffffffffffffffffffffffffffffff1673ffffffffffffffffffffffffffffffffffffffff161480610eb75750610eb6336005600084815260200190815260200160002060009054906101000a900473ffffffffffffffffffffffffffffffffffffffff16610a28565b5b1515610ec257600080fd5b610ecf8686863387611138565b505050505050565b8015610f0257610ee78233610a28565b151515610ef357600080fd5b610efd8233611551565b610f22565b610f0c8233610a28565b1515610f1757600080fd5b610f2182336115ea565b5b3373ffffffffffffffffffffffffffffffffffffffff168273ffffffffffffffffffffffffffffffffffffffff167ffe1dcbb12493a4af760875b0c328b264e6397b8bd47cdc249df0444b4daf1cbc83604051808215151515815260200191505060405180910390a35050565b8260008173ffffffffffffffffffffffffffffffffffffffff1614151515610fb657600080fd5b823373ffffffffffffffffffffffffffffffffffffffff166005600083815260200190815260200160002060009054906101000a900473ffffffffffffffffffffffffffffffffffffffff1673ffffffffffffffffffffffffffffffffffffffff1614151561102457600080fd5b61104285858560006020604051908101604052806000815250611138565b5050505050565b6000600460008473ffffffffffffffffffffffffffffffffffffffff1673ffffffffffffffffffffffffffffffffffffffff168152602001908152602001600020805490508210151561109b57600080fd5b600460008473ffffffffffffffffffffffffffffffffffffffff1673ffffffffffffffffffffffffffffffffffffffff168152602001908152602001600020828154811015156110e757fe5b906000526020600020900154905092915050565b60006005600083815260200190815260200160002060009054906101000a900473ffffffffffffffffffffffffffffffffffffffff169050919050565b60006005600086815260200190815260200160002060009054906101000a900473ffffffffffffffffffffffffffffffffffffffff16905061117a8186611683565b6111848686611960565b61118d86611a5e565b156113dd57600960009054906101000a900460ff161515156111ae57600080fd5b6001600960006101000a81548160ff0219169083151502179055508573ffffffffffffffffffffffffffffffffffffffff16633bde30728683898888886040518763ffffffff167c0100000000000000000000000000000000000000000000000000000000028152600401808781526020018673ffffffffffffffffffffffffffffffffffffffff1673ffffffffffffffffffffffffffffffffffffffff1681526020018573ffffffffffffffffffffffffffffffffffffffff1673ffffffffffffffffffffffffffffffffffffffff168152602001806020018473ffffffffffffffffffffffffffffffffffffffff1673ffffffffffffffffffffffffffffffffffffffff16815260200180602001838103835286818151815260200191508051906020019080838360005b838110156112f65780820151818401526020810190506112db565b50505050905090810190601f1680156113235780820380516001836020036101000a031916815260200191505b50838103825284818151815260200191508051906020019080838360005b8381101561135c578082015181840152602081019050611341565b50505050905090810190601f1680156113895780820380516001836020036101000a031916815260200191505b5098505050505050505050600060405180830381600087803b15156113ad57600080fd5b6102c65a03f115156113be57600080fd5b5050506000600960006101000a81548160ff0219169083151502179055505b848673ffffffffffffffffffffffffffffffffffffffff168273ffffffffffffffffffffffffffffffffffffffff167f8988d59efc2c4547ef86c88f6543963bab0cea94f8e486e619c7c3a790db93be868887604051808473ffffffffffffffffffffffffffffffffffffffff1673ffffffffffffffffffffffffffffffffffffffff1681526020018060200180602001838103835285818151815260200191508051906020019080838360005b838110156114a657808201518184015260208101905061148b565b50505050905090810190601f1680156114d35780820380516001836020036101000a031916815260200191505b50838103825284818151815260200191508051906020019080838360005b8381101561150c5780820151818401526020810190506114f1565b50505050905090810190601f1680156115395780820380516001836020036101000a031916815260200191505b509550505050505060405180910390a4505050505050565b6001600860008373ffffffffffffffffffffffffffffffffffffffff1673ffffffffffffffffffffffffffffffffffffffff16815260200190815260200160002060008473ffffffffffffffffffffffffffffffffffffffff1673ffffffffffffffffffffffffffffffffffffffff16815260200190815260200160002060006101000a81548160ff0219169083151502179055505050565b6000600860008373ffffffffffffffffffffffffffffffffffffffff1673ffffffffffffffffffffffffffffffffffffffff16815260200190815260200160002060008473ffffffffffffffffffffffffffffffffffffffff1673ffffffffffffffffffffffffffffffffffffffff16815260200190815260200160002060006101000a81548160ff0219169083151502179055505050565b6000806000600660008581526020019081526020016000205492506116ba60016116ac87610986565b611a7190919063ffffffff16565b9150600460008673ffffffffffffffffffffffffffffffffffffffff1673ffffffffffffffffffffffffffffffffffffffff1681526020019081526020016000208281548110151561170857fe5b906000526020600020900154905060006005600086815260200190815260200160002060006101000a81548173ffffffffffffffffffffffffffffffffffffffff021916908373ffffffffffffffffffffffffffffffffffffffff16021790555080600460008773ffffffffffffffffffffffffffffffffffffffff1673ffffffffffffffffffffffffffffffffffffffff168152602001908152602001600020848154811015156117b657fe5b9060005260206000209001819055506000600460008773ffffffffffffffffffffffffffffffffffffffff1673ffffffffffffffffffffffffffffffffffffffff1681526020019081526020016000208381548110151561181357fe5b906000526020600020900181905550600460008673ffffffffffffffffffffffffffffffffffffffff1673ffffffffffffffffffffffffffffffffffffffff1681526020019081526020016000208054809190600190036118749190611ad0565b506000600460008773ffffffffffffffffffffffffffffffffffffffff1673ffffffffffffffffffffffffffffffffffffffff16815260200190815260200160002080549050141561190c57600460008673ffffffffffffffffffffffffffffffffffffffff1673ffffffffffffffffffffffffffffffffffffffff168152602001908152602001600020600061190b9190611afc565b5b600060066000868152602001908152602001600020819055508260066000838152602001908152602001600020819055506119536001600354611a7190919063ffffffff16565b6003819055505050505050565b6000826005600084815260200190815260200160002060006101000a81548173ffffffffffffffffffffffffffffffffffffffff021916908373ffffffffffffffffffffffffffffffffffffffff1602179055506119bd83610986565b9050600460008473ffffffffffffffffffffffffffffffffffffffff1673ffffffffffffffffffffffffffffffffffffffff1681526020019081526020016000208054806001018281611a109190611b1d565b916000526020600020900160008490919091505550806006600084815260200190815260200160002081905550611a536001600354611a8a90919063ffffffff16565b600381905550505050565b600080823b905060008111915050919050565b6000828211151515611a7f57fe5b818303905092915050565b6000808284019050838110151515611a9e57fe5b8091505092915050565b602060405190810160405280600081525090565b602060405190810160405280600081525090565b815481835581811511611af757818360005260206000209182019101611af69190611b49565b5b505050565b5080546000825590600052602060002090810190611b1a9190611b49565b50565b815481835581811511611b4457818360005260206000209182019101611b439190611b49565b5b505050565b611b6b91905b80821115611b67576000816000905550600101611b4f565b5090565b905600a165627a7a72305820b55e03b2a5380ab76d09420c9be2f99f5cee93a9ca7b6ca59a35775bf1f904d10029",
  "source": "pragma solidity ^0.4.18;\n\nimport 'zeppelin-solidity/contracts/math/SafeMath.sol';\n\nimport './AssetRegistryStorage.sol';\n\nimport './IAssetRegistry.sol';\n\nimport './IAssetHolder.sol';\n\ncontract StandardAssetRegistry is AssetRegistryStorage, IAssetRegistry {\n  using SafeMath for uint256;\n\n  //\n  // Global Getters\n  //\n\n  function name() public view returns (string) {\n    return _name;\n  }\n\n  function symbol() public view returns (string) {\n    return _symbol;\n  }\n\n  function description() public view returns (string) {\n    return _description;\n  }\n\n  function totalSupply() public view returns (uint256) {\n    return _count;\n  }\n\n  //\n  // Asset-centric getter functions\n  //\n\n  function exists(uint256 assetId) public view returns (bool) {\n    return _holderOf[assetId] != 0;\n  }\n\n  function holderOf(uint256 assetId) public view returns (address) {\n    return _holderOf[assetId];\n  }\n\n  function safeHolderOf(uint256 assetId) public view returns (address) {\n    address holder = _holderOf[assetId];\n    require(holder != 0);\n    return holder;\n  }\n\n  function assetData(uint256 assetId) public view returns (string) {\n    require(_holderOf[assetId] != 0);\n    return _assetData[assetId];\n  }\n\n  //\n  // Holder-centric getter functions\n  //\n\n  function assetsCount(address holder) public view returns (uint256) {\n    return _assetsOf[holder].length;\n  }\n\n  function assetByIndex(address holder, uint256 index) public view returns (uint256) {\n    require(index < _assetsOf[holder].length);\n    return _assetsOf[holder][index];\n  }\n\n  function assetsOf(address holder) external view returns (uint256[]) {\n    return _assetsOf[holder];\n  }\n\n  //\n  // Authorization getters\n  //\n\n  function isOperatorAuthorizedFor(address operator, address assetHolder)\n    public view returns (bool)\n  {\n    return _operators[assetHolder][operator];\n  }\n\n  function authorizeOperator(address operator, bool authorized) public {\n    if (authorized) {\n      require(!isOperatorAuthorizedFor(operator, msg.sender));\n      _addAuthorization(operator, msg.sender);\n    } else {\n      require(isOperatorAuthorizedFor(operator, msg.sender));\n      _clearAuthorization(operator, msg.sender);\n    }\n    AuthorizeOperator(operator, msg.sender, authorized);\n  }\n\n  function _addAuthorization(address operator, address holder) private {\n    _operators[holder][operator] = true;\n  }\n\n  function _clearAuthorization(address operator, address holder) private {\n    _operators[holder][operator] = false;\n  }\n\n  //\n  // Internal Operations\n  //\n\n  function _addAssetTo(address to, uint256 assetId) internal {\n    _holderOf[assetId] = to;\n\n    uint256 length = assetsCount(to);\n\n    _assetsOf[to].push(assetId);\n\n    _indexOfAsset[assetId] = length;\n\n    _count = _count.add(1);\n  }\n\n  function _addAssetTo(address to, uint256 assetId, string data) internal {\n    _addAssetTo(to, assetId);\n\n    _assetData[assetId] = data;\n  }\n\n  function _removeAssetFrom(address from, uint256 assetId) internal {\n    uint256 assetIndex = _indexOfAsset[assetId];\n    uint256 lastAssetIndex = assetsCount(from).sub(1);\n    uint256 lastAssetId = _assetsOf[from][lastAssetIndex];\n\n    _holderOf[assetId] = 0;\n\n    // Insert the last asset into the position previously occupied by the asset to be removed\n    _assetsOf[from][assetIndex] = lastAssetId;\n\n    // Resize the array\n    _assetsOf[from][lastAssetIndex] = 0;\n    _assetsOf[from].length--;\n\n    // Remove the array if no more assets are owned to prevent pollution\n    if (_assetsOf[from].length == 0) {\n      delete _assetsOf[from];\n    }\n\n    // Update the index of positions for the asset\n    _indexOfAsset[assetId] = 0;\n    _indexOfAsset[lastAssetId] = assetIndex;\n\n    _count = _count.sub(1);\n  }\n\n  //\n  // Supply-altering functions\n  //\n\n  function _generate(uint256 assetId, address beneficiary, string data) internal {\n    require(_holderOf[assetId] == 0);\n\n    _addAssetTo(beneficiary, assetId, data);\n\n    Transfer(0, beneficiary, assetId, msg.sender, bytes(data), '');\n  }\n\n  function _destroy(uint256 assetId) internal {\n    address holder = _holderOf[assetId];\n    require(holder != 0);\n\n    _removeAssetFrom(holder, assetId);\n\n    Transfer(holder, 0, assetId, msg.sender, '', '');\n  }\n\n  //\n  // Transaction related operations\n  //\n\n  modifier onlyHolder(uint256 assetId) {\n    require(_holderOf[assetId] == msg.sender);\n    _;\n  }\n\n  modifier onlyOperatorOrHolder(uint256 assetId) {\n    require(_holderOf[assetId] == msg.sender\n         || isOperatorAuthorizedFor(msg.sender, _holderOf[assetId]));\n    _;\n  }\n\n  modifier isDestinataryDefined(address destinatary) {\n    require(destinatary != 0);\n    _;\n  }\n\n  function transfer(address to, uint256 assetId)\n    isDestinataryDefined(to)\n    onlyHolder(assetId)\n    public\n  {\n    return _doSend(to, assetId, '', 0, '');\n  }\n\n  function transfer(address to, uint256 assetId, bytes userData)\n    isDestinataryDefined(to)\n    onlyHolder(assetId)\n    public\n  {\n    return _doSend(to, assetId, userData, 0, '');\n  }\n\n  function operatorTransfer(\n    address to, uint256 assetId, bytes userData, bytes operatorData\n  )\n    isDestinataryDefined(to)\n    onlyOperatorOrHolder(assetId)\n    public\n  {\n    return _doSend(to, assetId, userData, msg.sender, operatorData);\n  }\n\n  function _doSend(\n    address to, uint256 assetId, bytes userData, address operator, bytes operatorData\n  )\n    internal\n  {\n    address holder = _holderOf[assetId];\n    _removeAssetFrom(holder, assetId);\n    _addAssetTo(to, assetId);\n\n    // TODO: Implement EIP 820\n    if (_isContract(to)) {\n      require(!_reentrancy);\n      _reentrancy = true;\n      IAssetHolder(to).onAssetReceived(assetId, holder, to, userData, operator, operatorData);\n      _reentrancy = false;\n    }\n\n    Transfer(holder, to, assetId, operator, userData, operatorData);\n  }\n\n  //\n  // Update related functions\n  //\n\n  function _update(uint256 assetId, string data) internal {\n    require(exists(assetId));\n    _assetData[assetId] = data;\n    Update(assetId, _holderOf[assetId], msg.sender, data);\n  }\n\n  //\n  // Utilities\n  //\n\n  function _isContract(address addr) internal view returns (bool) {\n    uint size;\n    assembly { size := extcodesize(addr) }\n    return size > 0;\n  }\n}\n",
  "sourcePath": "/home/icole/Workspace/sixers-trader/contracts/erc821/StandardAssetRegistry.sol",
  "compiler": {
    "name": "solc",
    "version": "0.4.18+commit.9cf6e910.Emscripten.clang"
  },
  "schemaVersion": "1.0.1",
  "updatedAt": "2018-01-21T22:35:09.188Z"
}