{
  "contractName": "SixersJoelEmbiid",
  "abi": [
    {
      "constant": true,
      "inputs": [],
      "name": "name",
      "outputs": [
        {
          "name": "",
          "type": "string"
        }
      ],
      "payable": false,
      "stateMutability": "view",
      "type": "function"
    },
    {
      "constant": true,
      "inputs": [],
      "name": "totalSupply",
      "outputs": [
        {
          "name": "",
          "type": "uint256"
        }
      ],
      "payable": false,
      "stateMutability": "view",
      "type": "function"
    },
    {
      "constant": true,
      "inputs": [
        {
          "name": "id",
          "type": "uint256"
        }
      ],
      "name": "idToAddress",
      "outputs": [
        {
          "name": "",
          "type": "address"
        }
      ],
      "payable": false,
      "stateMutability": "view",
      "type": "function"
    },
    {
      "constant": true,
      "inputs": [
        {
          "name": "holder",
          "type": "address"
        }
      ],
      "name": "assetsOf",
      "outputs": [
        {
          "name": "",
          "type": "uint256[]"
        }
      ],
      "payable": false,
      "stateMutability": "view",
      "type": "function"
    },
    {
      "constant": true,
      "inputs": [
        {
          "name": "assetId",
          "type": "uint256"
        }
      ],
      "name": "safeHolderOf",
      "outputs": [
        {
          "name": "",
          "type": "address"
        }
      ],
      "payable": false,
      "stateMutability": "view",
      "type": "function"
    },
    {
      "constant": true,
      "inputs": [
        {
          "name": "holder",
          "type": "address"
        }
      ],
      "name": "assetsCount",
      "outputs": [
        {
          "name": "",
          "type": "uint256"
        }
      ],
      "payable": false,
      "stateMutability": "view",
      "type": "function"
    },
    {
      "constant": true,
      "inputs": [
        {
          "name": "assetId",
          "type": "uint256"
        }
      ],
      "name": "exists",
      "outputs": [
        {
          "name": "",
          "type": "bool"
        }
      ],
      "payable": false,
      "stateMutability": "view",
      "type": "function"
    },
    {
      "constant": true,
      "inputs": [
        {
          "name": "operator",
          "type": "address"
        },
        {
          "name": "assetHolder",
          "type": "address"
        }
      ],
      "name": "isOperatorAuthorizedFor",
      "outputs": [
        {
          "name": "",
          "type": "bool"
        }
      ],
      "payable": false,
      "stateMutability": "view",
      "type": "function"
    },
    {
      "constant": false,
      "inputs": [
        {
          "name": "id",
          "type": "uint256"
        }
      ],
      "name": "claimPlayer",
      "outputs": [],
      "payable": true,
      "stateMutability": "payable",
      "type": "function"
    },
    {
      "constant": true,
      "inputs": [],
      "name": "description",
      "outputs": [
        {
          "name": "",
          "type": "string"
        }
      ],
      "payable": false,
      "stateMutability": "view",
      "type": "function"
    },
    {
      "constant": true,
      "inputs": [],
      "name": "symbol",
      "outputs": [
        {
          "name": "",
          "type": "string"
        }
      ],
      "payable": false,
      "stateMutability": "view",
      "type": "function"
    },
    {
      "constant": false,
      "inputs": [
        {
          "name": "to",
          "type": "address"
        },
        {
          "name": "assetId",
          "type": "uint256"
        }
      ],
      "name": "transfer",
      "outputs": [],
      "payable": false,
      "stateMutability": "nonpayable",
      "type": "function"
    },
    {
      "constant": true,
      "inputs": [
        {
          "name": "assetId",
          "type": "uint256"
        }
      ],
      "name": "assetData",
      "outputs": [
        {
          "name": "",
          "type": "string"
        }
      ],
      "payable": false,
      "stateMutability": "view",
      "type": "function"
    },
    {
      "constant": false,
      "inputs": [
        {
          "name": "to",
          "type": "address"
        },
        {
          "name": "assetId",
          "type": "uint256"
        },
        {
          "name": "userData",
          "type": "bytes"
        },
        {
          "name": "operatorData",
          "type": "bytes"
        }
      ],
      "name": "operatorTransfer",
      "outputs": [],
      "payable": false,
      "stateMutability": "nonpayable",
      "type": "function"
    },
    {
      "constant": false,
      "inputs": [
        {
          "name": "operator",
          "type": "address"
        },
        {
          "name": "authorized",
          "type": "bool"
        }
      ],
      "name": "authorizeOperator",
      "outputs": [],
      "payable": false,
      "stateMutability": "nonpayable",
      "type": "function"
    },
    {
      "constant": true,
      "inputs": [],
      "name": "_owner",
      "outputs": [
        {
          "name": "",
          "type": "address"
        }
      ],
      "payable": false,
      "stateMutability": "view",
      "type": "function"
    },
    {
      "constant": false,
      "inputs": [
        {
          "name": "to",
          "type": "address"
        },
        {
          "name": "assetId",
          "type": "uint256"
        },
        {
          "name": "userData",
          "type": "bytes"
        }
      ],
      "name": "transfer",
      "outputs": [],
      "payable": false,
      "stateMutability": "nonpayable",
      "type": "function"
    },
    {
      "constant": true,
      "inputs": [],
      "name": "claimedCount",
      "outputs": [
        {
          "name": "",
          "type": "uint256"
        }
      ],
      "payable": false,
      "stateMutability": "view",
      "type": "function"
    },
    {
      "constant": true,
      "inputs": [
        {
          "name": "playerOwner",
          "type": "address"
        }
      ],
      "name": "getOwnedPlayers",
      "outputs": [
        {
          "name": "",
          "type": "uint256[]"
        }
      ],
      "payable": false,
      "stateMutability": "view",
      "type": "function"
    },
    {
      "constant": true,
      "inputs": [
        {
          "name": "holder",
          "type": "address"
        },
        {
          "name": "index",
          "type": "uint256"
        }
      ],
      "name": "assetByIndex",
      "outputs": [
        {
          "name": "",
          "type": "uint256"
        }
      ],
      "payable": false,
      "stateMutability": "view",
      "type": "function"
    },
    {
      "constant": true,
      "inputs": [
        {
          "name": "assetId",
          "type": "uint256"
        }
      ],
      "name": "holderOf",
      "outputs": [
        {
          "name": "",
          "type": "address"
        }
      ],
      "payable": false,
      "stateMutability": "view",
      "type": "function"
    },
    {
      "inputs": [],
      "payable": false,
      "stateMutability": "nonpayable",
      "type": "constructor"
    },
    {
      "anonymous": false,
      "inputs": [
        {
          "indexed": true,
          "name": "_id",
          "type": "uint256"
        },
        {
          "indexed": true,
          "name": "_seller",
          "type": "address"
        }
      ],
      "name": "claimPlayerEvent",
      "type": "event"
    },
    {
      "anonymous": false,
      "inputs": [
        {
          "indexed": true,
          "name": "from",
          "type": "address"
        },
        {
          "indexed": true,
          "name": "to",
          "type": "address"
        },
        {
          "indexed": true,
          "name": "assetId",
          "type": "uint256"
        },
        {
          "indexed": false,
          "name": "operator",
          "type": "address"
        },
        {
          "indexed": false,
          "name": "userData",
          "type": "bytes"
        },
        {
          "indexed": false,
          "name": "operatorData",
          "type": "bytes"
        }
      ],
      "name": "Transfer",
      "type": "event"
    },
    {
      "anonymous": false,
      "inputs": [
        {
          "indexed": true,
          "name": "assetId",
          "type": "uint256"
        },
        {
          "indexed": true,
          "name": "holder",
          "type": "address"
        },
        {
          "indexed": true,
          "name": "operator",
          "type": "address"
        },
        {
          "indexed": false,
          "name": "data",
          "type": "string"
        }
      ],
      "name": "Update",
      "type": "event"
    },
    {
      "anonymous": false,
      "inputs": [
        {
          "indexed": true,
          "name": "operator",
          "type": "address"
        },
        {
          "indexed": true,
          "name": "holder",
          "type": "address"
        },
        {
          "indexed": false,
          "name": "authorized",
          "type": "bool"
        }
      ],
      "name": "AuthorizeOperator",
      "type": "event"
    }
  ],
  "bytecode": "0x606060405234156200001057600080fd5b33600960016101000a81548173ffffffffffffffffffffffffffffffffffffffff021916908373ffffffffffffffffffffffffffffffffffffffff1602179055506040805190810160405280600c81526020017f534958455253454d424949440000000000000000000000000000000000000000815250600090805190602001906200009e92919062000149565b506040805190810160405280600681526020017f534958455253000000000000000000000000000000000000000000000000000081525060019080519060200190620000ec92919062000149565b506040805190810160405280601e81526020017f5068696c6164656c70686961203736657273204a6f656c20456d626969640000815250600290805190602001906200013a92919062000149565b506014600381905550620001f8565b828054600181600116156101000203166002900490600052602060002090601f016020900481019282601f106200018c57805160ff1916838001178555620001bd565b82800160010185558215620001bd579182015b82811115620001bc5782518255916020019190600101906200019f565b5b509050620001cc9190620001d0565b5090565b620001f591905b80821115620001f1576000816000905550600101620001d7565b5090565b90565b6120ec80620002086000396000f30060606040526004361061011d576000357c0100000000000000000000000000000000000000000000000000000000900463ffffffff16806306fdde031461012257806318160ddd146101b05780632a2d0c47146101d95780632c62fa101461023c57806333683ec6146102ca578063412cbc061461032d5780634f558e791461037a57806355ef2913146103b557806369c888ed146104255780637284e4161461043d57806395d89b41146104cb578063a9059cbb14610559578063ac823a7e1461059b578063ae5a9bb414610637578063b0994d4a146106ff578063b2bdfa7b14610743578063be45fd6214610798578063c08fa1a41461081d578063ceb435b514610846578063d2953f84146108d4578063dbacc2371461092a575b600080fd5b341561012d57600080fd5b61013561098d565b6040518080602001828103825283818151815260200191508051906020019080838360005b8381101561017557808201518184015260208101905061015a565b50505050905090810190601f1680156101a25780820380516001836020036101000a031916815260200191505b509250505060405180910390f35b34156101bb57600080fd5b6101c3610a35565b6040518082815260200191505060405180910390f35b34156101e457600080fd5b6101fa6004808035906020019091905050610a3f565b604051808273ffffffffffffffffffffffffffffffffffffffff1673ffffffffffffffffffffffffffffffffffffffff16815260200191505060405180910390f35b341561024757600080fd5b610273600480803573ffffffffffffffffffffffffffffffffffffffff16906020019091905050610a7c565b6040518080602001828103825283818151815260200191508051906020019060200280838360005b838110156102b657808201518184015260208101905061029b565b505050509050019250505060405180910390f35b34156102d557600080fd5b6102eb6004808035906020019091905050610b19565b604051808273ffffffffffffffffffffffffffffffffffffffff1673ffffffffffffffffffffffffffffffffffffffff16815260200191505060405180910390f35b341561033857600080fd5b610364600480803573ffffffffffffffffffffffffffffffffffffffff16906020019091905050610b81565b6040518082815260200191505060405180910390f35b341561038557600080fd5b61039b6004808035906020019091905050610bcd565b604051808215151515815260200191505060405180910390f35b34156103c057600080fd5b61040b600480803573ffffffffffffffffffffffffffffffffffffffff1690602001909190803573ffffffffffffffffffffffffffffffffffffffff16906020019091905050610c23565b604051808215151515815260200191505060405180910390f35b61043b6004808035906020019091905050610cb7565b005b341561044857600080fd5b610450610ceb565b6040518080602001828103825283818151815260200191508051906020019080838360005b83811015610490578082015181840152602081019050610475565b50505050905090810190601f1680156104bd5780820380516001836020036101000a031916815260200191505b509250505060405180910390f35b34156104d657600080fd5b6104de610d93565b6040518080602001828103825283818151815260200191508051906020019080838360005b8381101561051e578082015181840152602081019050610503565b50505050905090810190601f16801561054b5780820380516001836020036101000a031916815260200191505b509250505060405180910390f35b341561056457600080fd5b610599600480803573ffffffffffffffffffffffffffffffffffffffff16906020019091908035906020019091905050610e3b565b005b34156105a657600080fd5b6105bc6004808035906020019091905050610f04565b6040518080602001828103825283818151815260200191508051906020019080838360005b838110156105fc5780820151818401526020810190506105e1565b50505050905090810190601f1680156106295780820380516001836020036101000a031916815260200191505b509250505060405180910390f35b341561064257600080fd5b6106fd600480803573ffffffffffffffffffffffffffffffffffffffff1690602001909190803590602001909190803590602001908201803590602001908080601f0160208091040260200160405190810160405280939291908181526020018383808284378201915050505050509190803590602001908201803590602001908080601f01602080910402602001604051908101604052809392919081815260200183838082843782019150505050505091905050611018565b005b341561070a57600080fd5b610741600480803573ffffffffffffffffffffffffffffffffffffffff169060200190919080351515906020019091905050611106565b005b341561074e57600080fd5b6107566111be565b604051808273ffffffffffffffffffffffffffffffffffffffff1673ffffffffffffffffffffffffffffffffffffffff16815260200191505060405180910390f35b34156107a357600080fd5b61081b600480803573ffffffffffffffffffffffffffffffffffffffff1690602001909190803590602001909190803590602001908201803590602001908080601f016020809104026020016040519081016040528093929190818152602001838380828437820191505050505050919050506111e4565b005b341561082857600080fd5b61083061129e565b6040518082815260200191505060405180910390f35b341561085157600080fd5b61087d600480803573ffffffffffffffffffffffffffffffffffffffff169060200190919050506112e1565b6040518080602001828103825283818151815260200191508051906020019060200280838360005b838110156108c05780820151818401526020810190506108a5565b505050509050019250505060405180910390f35b34156108df57600080fd5b610914600480803573ffffffffffffffffffffffffffffffffffffffff1690602001909190803590602001909190505061137e565b6040518082815260200191505060405180910390f35b341561093557600080fd5b61094b6004808035906020019091905050611430565b604051808273ffffffffffffffffffffffffffffffffffffffff1673ffffffffffffffffffffffffffffffffffffffff16815260200191505060405180910390f35b610995611f7a565b60008054600181600116156101000203166002900480601f016020809104026020016040519081016040528092919081815260200182805460018160011615610100020316600290048015610a2b5780601f10610a0057610100808354040283529160200191610a2b565b820191906000526020600020905b815481529060010190602001808311610a0e57829003601f168201915b5050505050905090565b6000600354905090565b60006005600083815260200190815260200160002060009054906101000a900473ffffffffffffffffffffffffffffffffffffffff169050919050565b610a84611f8e565b600460008373ffffffffffffffffffffffffffffffffffffffff1673ffffffffffffffffffffffffffffffffffffffff168152602001908152602001600020805480602002602001604051908101604052809291908181526020018280548015610b0d57602002820191906000526020600020905b815481526020019060010190808311610af9575b50505050509050919050565b6000806005600084815260200190815260200160002060009054906101000a900473ffffffffffffffffffffffffffffffffffffffff16905060008173ffffffffffffffffffffffffffffffffffffffff1614151515610b7857600080fd5b80915050919050565b6000600460008373ffffffffffffffffffffffffffffffffffffffff1673ffffffffffffffffffffffffffffffffffffffff168152602001908152602001600020805490509050919050565b6000806005600084815260200190815260200160002060009054906101000a900473ffffffffffffffffffffffffffffffffffffffff1673ffffffffffffffffffffffffffffffffffffffff1614159050919050565b6000600860008373ffffffffffffffffffffffffffffffffffffffff1673ffffffffffffffffffffffffffffffffffffffff16815260200190815260200160002060008473ffffffffffffffffffffffffffffffffffffffff1673ffffffffffffffffffffffffffffffffffffffff16815260200190815260200160002060009054906101000a900460ff16905092915050565b66b1a2bc2ec500003410151515610ccd57600080fd5b610ce88133602060405190810160405280600081525061146d565b50565b610cf3611f7a565b60028054600181600116156101000203166002900480601f016020809104026020016040519081016040528092919081815260200182805460018160011615610100020316600290048015610d895780601f10610d5e57610100808354040283529160200191610d89565b820191906000526020600020905b815481529060010190602001808311610d6c57829003601f168201915b5050505050905090565b610d9b611f7a565b60018054600181600116156101000203166002900480601f016020809104026020016040519081016040528092919081815260200182805460018160011615610100020316600290048015610e315780601f10610e0657610100808354040283529160200191610e31565b820191906000526020600020905b815481529060010190602001808311610e1457829003601f168201915b5050505050905090565b8160008173ffffffffffffffffffffffffffffffffffffffff1614151515610e6257600080fd5b813373ffffffffffffffffffffffffffffffffffffffff166005600083815260200190815260200160002060009054906101000a900473ffffffffffffffffffffffffffffffffffffffff1673ffffffffffffffffffffffffffffffffffffffff16141515610ed057600080fd5b610efe84846020604051908101604052806000815250600060206040519081016040528060008152506115d3565b50505050565b610f0c611f7a565b60006005600084815260200190815260200160002060009054906101000a900473ffffffffffffffffffffffffffffffffffffffff1673ffffffffffffffffffffffffffffffffffffffff1614151515610f6557600080fd5b600760008381526020019081526020016000208054600181600116156101000203166002900480601f01602080910402602001604051908101604052809291908181526020018280546001816001161561010002031660029004801561100c5780601f10610fe15761010080835404028352916020019161100c565b820191906000526020600020905b815481529060010190602001808311610fef57829003601f168201915b50505050509050919050565b8360008173ffffffffffffffffffffffffffffffffffffffff161415151561103f57600080fd5b833373ffffffffffffffffffffffffffffffffffffffff166005600083815260200190815260200160002060009054906101000a900473ffffffffffffffffffffffffffffffffffffffff1673ffffffffffffffffffffffffffffffffffffffff1614806110e657506110e5336005600084815260200190815260200160002060009054906101000a900473ffffffffffffffffffffffffffffffffffffffff16610c23565b5b15156110f157600080fd5b6110fe86868633876115d3565b505050505050565b8015611131576111168233610c23565b15151561112257600080fd5b61112c82336119ec565b611151565b61113b8233610c23565b151561114657600080fd5b6111508233611a85565b5b3373ffffffffffffffffffffffffffffffffffffffff168273ffffffffffffffffffffffffffffffffffffffff167ffe1dcbb12493a4af760875b0c328b264e6397b8bd47cdc249df0444b4daf1cbc83604051808215151515815260200191505060405180910390a35050565b600960019054906101000a900473ffffffffffffffffffffffffffffffffffffffff1681565b8260008173ffffffffffffffffffffffffffffffffffffffff161415151561120b57600080fd5b823373ffffffffffffffffffffffffffffffffffffffff166005600083815260200190815260200160002060009054906101000a900473ffffffffffffffffffffffffffffffffffffffff1673ffffffffffffffffffffffffffffffffffffffff1614151561127957600080fd5b611297858585600060206040519081016040528060008152506115d3565b5050505050565b6000806000809150600090505b6003548110156112d9576112be81610bcd565b156112cc5781806001019250505b80806001019150506112ab565b819250505090565b6112e9611f8e565b600460008373ffffffffffffffffffffffffffffffffffffffff1673ffffffffffffffffffffffffffffffffffffffff16815260200190815260200160002080548060200260200160405190810160405280929190818152602001828054801561137257602002820191906000526020600020905b81548152602001906001019080831161135e575b50505050509050919050565b6000600460008473ffffffffffffffffffffffffffffffffffffffff1673ffffffffffffffffffffffffffffffffffffffff16815260200190815260200160002080549050821015156113d057600080fd5b600460008473ffffffffffffffffffffffffffffffffffffffff1673ffffffffffffffffffffffffffffffffffffffff1681526020019081526020016000208281548110151561141c57fe5b906000526020600020900154905092915050565b60006005600083815260200190815260200160002060009054906101000a900473ffffffffffffffffffffffffffffffffffffffff169050919050565b60006005600085815260200190815260200160002060009054906101000a900473ffffffffffffffffffffffffffffffffffffffff1673ffffffffffffffffffffffffffffffffffffffff161415156114c557600080fd5b6114d0828483611b1e565b828273ffffffffffffffffffffffffffffffffffffffff1660007f8988d59efc2c4547ef86c88f6543963bab0cea94f8e486e619c7c3a790db93be3385604051808373ffffffffffffffffffffffffffffffffffffffff1673ffffffffffffffffffffffffffffffffffffffff1681526020018060200180602001838103835284818151815260200191508051906020019080838360005b83811015611583578082015181840152602081019050611568565b50505050905090810190601f1680156115b05780820380516001836020036101000a031916815260200191505b5083810382526000815260200160200194505050505060405180910390a4505050565b60006005600086815260200190815260200160002060009054906101000a900473ffffffffffffffffffffffffffffffffffffffff1690506116158186611b55565b61161f8686611e32565b61162886611f30565b1561187857600960009054906101000a900460ff1615151561164957600080fd5b6001600960006101000a81548160ff0219169083151502179055508573ffffffffffffffffffffffffffffffffffffffff16633bde30728683898888886040518763ffffffff167c0100000000000000000000000000000000000000000000000000000000028152600401808781526020018673ffffffffffffffffffffffffffffffffffffffff1673ffffffffffffffffffffffffffffffffffffffff1681526020018573ffffffffffffffffffffffffffffffffffffffff1673ffffffffffffffffffffffffffffffffffffffff168152602001806020018473ffffffffffffffffffffffffffffffffffffffff1673ffffffffffffffffffffffffffffffffffffffff16815260200180602001838103835286818151815260200191508051906020019080838360005b83811015611791578082015181840152602081019050611776565b50505050905090810190601f1680156117be5780820380516001836020036101000a031916815260200191505b50838103825284818151815260200191508051906020019080838360005b838110156117f75780820151818401526020810190506117dc565b50505050905090810190601f1680156118245780820380516001836020036101000a031916815260200191505b5098505050505050505050600060405180830381600087803b151561184857600080fd5b6102c65a03f1151561185957600080fd5b5050506000600960006101000a81548160ff0219169083151502179055505b848673ffffffffffffffffffffffffffffffffffffffff168273ffffffffffffffffffffffffffffffffffffffff167f8988d59efc2c4547ef86c88f6543963bab0cea94f8e486e619c7c3a790db93be868887604051808473ffffffffffffffffffffffffffffffffffffffff1673ffffffffffffffffffffffffffffffffffffffff1681526020018060200180602001838103835285818151815260200191508051906020019080838360005b83811015611941578082015181840152602081019050611926565b50505050905090810190601f16801561196e5780820380516001836020036101000a031916815260200191505b50838103825284818151815260200191508051906020019080838360005b838110156119a757808201518184015260208101905061198c565b50505050905090810190601f1680156119d45780820380516001836020036101000a031916815260200191505b509550505050505060405180910390a4505050505050565b6001600860008373ffffffffffffffffffffffffffffffffffffffff1673ffffffffffffffffffffffffffffffffffffffff16815260200190815260200160002060008473ffffffffffffffffffffffffffffffffffffffff1673ffffffffffffffffffffffffffffffffffffffff16815260200190815260200160002060006101000a81548160ff0219169083151502179055505050565b6000600860008373ffffffffffffffffffffffffffffffffffffffff1673ffffffffffffffffffffffffffffffffffffffff16815260200190815260200160002060008473ffffffffffffffffffffffffffffffffffffffff1673ffffffffffffffffffffffffffffffffffffffff16815260200190815260200160002060006101000a81548160ff0219169083151502179055505050565b611b288383611e32565b80600760008481526020019081526020016000209080519060200190611b4f929190611fa2565b50505050565b600080600060066000858152602001908152602001600020549250611b8c6001611b7e87610b81565b611f4390919063ffffffff16565b9150600460008673ffffffffffffffffffffffffffffffffffffffff1673ffffffffffffffffffffffffffffffffffffffff16815260200190815260200160002082815481101515611bda57fe5b906000526020600020900154905060006005600086815260200190815260200160002060006101000a81548173ffffffffffffffffffffffffffffffffffffffff021916908373ffffffffffffffffffffffffffffffffffffffff16021790555080600460008773ffffffffffffffffffffffffffffffffffffffff1673ffffffffffffffffffffffffffffffffffffffff16815260200190815260200160002084815481101515611c8857fe5b9060005260206000209001819055506000600460008773ffffffffffffffffffffffffffffffffffffffff1673ffffffffffffffffffffffffffffffffffffffff16815260200190815260200160002083815481101515611ce557fe5b906000526020600020900181905550600460008673ffffffffffffffffffffffffffffffffffffffff1673ffffffffffffffffffffffffffffffffffffffff168152602001908152602001600020805480919060019003611d469190612022565b506000600460008773ffffffffffffffffffffffffffffffffffffffff1673ffffffffffffffffffffffffffffffffffffffff168152602001908152602001600020805490501415611dde57600460008673ffffffffffffffffffffffffffffffffffffffff1673ffffffffffffffffffffffffffffffffffffffff1681526020019081526020016000206000611ddd919061204e565b5b60006006600086815260200190815260200160002081905550826006600083815260200190815260200160002081905550611e256001600354611f4390919063ffffffff16565b6003819055505050505050565b6000826005600084815260200190815260200160002060006101000a81548173ffffffffffffffffffffffffffffffffffffffff021916908373ffffffffffffffffffffffffffffffffffffffff160217905550611e8f83610b81565b9050600460008473ffffffffffffffffffffffffffffffffffffffff1673ffffffffffffffffffffffffffffffffffffffff1681526020019081526020016000208054806001018281611ee2919061206f565b916000526020600020900160008490919091505550806006600084815260200190815260200160002081905550611f256001600354611f5c90919063ffffffff16565b600381905550505050565b600080823b905060008111915050919050565b6000828211151515611f5157fe5b818303905092915050565b6000808284019050838110151515611f7057fe5b8091505092915050565b602060405190810160405280600081525090565b602060405190810160405280600081525090565b828054600181600116156101000203166002900490600052602060002090601f016020900481019282601f10611fe357805160ff1916838001178555612011565b82800160010185558215612011579182015b82811115612010578251825591602001919060010190611ff5565b5b50905061201e919061209b565b5090565b81548183558181151161204957818360005260206000209182019101612048919061209b565b5b505050565b508054600082559060005260206000209081019061206c919061209b565b50565b81548183558181151161209657818360005260206000209182019101612095919061209b565b5b505050565b6120bd91905b808211156120b95760008160009055506001016120a1565b5090565b905600a165627a7a723058204707d3a2b9a3387c8554de6c813760f11bcc33ae71aef286b859f0f9d8a643ce0029",
  "source": "pragma solidity ^0.4.18;\n\nimport './erc821/StandardAssetRegistry.sol';\n\ncontract SixersJoelEmbiid is StandardAssetRegistry {\n    // Owner of this contract\n    address public _owner;\n\n    // Events\n    event claimPlayerEvent (\n      uint indexed _id,\n      address indexed _seller\n    );\n\n    // Constructor\n    function SixersJoelEmbiid() public {\n      _owner = msg.sender;\n      _name = \"SIXERSEMBIID\";\n      _symbol = \"SIXERS\";\n      _description = \"Philadelphia 76ers Joel Embiid\";\n      _count = 20;\n\n    }\n\n    function claimPlayer(uint256 id) payable public {\n      require(msg.value >= 0.05 ether);\n      _generate(id, msg.sender, '');\n    }\n\n    function idToAddress(uint256 id) public view returns (address) {\n      return _holderOf[id];\n    }\n\n    function getOwnedPlayers(address playerOwner) public view returns (uint256[]) {\n      return _assetsOf[playerOwner];\n    }\n\n    function claimedCount() public view returns (uint256) {\n      uint256 _claimedCount = 0;\n      for (uint i = 0; i < _count; i++) {\n        if (exists(i)) {\n          _claimedCount++;\n        }\n      }\n      return _claimedCount;\n    }\n\n}\n",
  "sourcePath": "/Users/icole/Workspace/sixers-trader/contracts/SixersJoelEmbiid.sol",
  "compiler": {
    "name": "solc",
    "version": "0.4.18+commit.9cf6e910.Emscripten.clang"
  },
  "schemaVersion": "1.0.1",
  "updatedAt": "2018-01-27T03:41:40.756Z"
}